:020000040800F2
:1000000000000220F9080008490900084507000817
:1000100055070008650700084909000800000000AE
:100020000000000000000000000000004909000876
:1000300049090008000000007706000819070008B9
:100040004909000849090008490900084909000848
:100050000000000049090008490900084909000892
:100060004909000849090008490900084909000828
:100070004909000849090008490900084909000818
:100080004909000849090008490900084909000808
:1000900049090008490900084909000849090008F8
:1000A00049090008490900084909000849090008E8
:1000B00049090008490900084909000849090008D8
:1000C00049090008490900084909000849090008C8
:1000D00049090008490900084909000849090008B8
:1000E00049090008490900084909000849090008A8
:1000F0004909000849090008490900084909000898
:100100004909000849090008490900084909000887
:100110004909000849090008490900084909000877
:100120004909000849090008490900084909000867
:100130004909000849090008490900084909000857
:100140004909000849090008490900084909000847
:100150004909000849090008490900084909000837
:100160004909000849090008490900084909000827
:100170004909000849090008490900084909000817
:1001800049090008490900080000000000000000BB
:10019000000000000000000000000000000000005F
:0801A0004909000849090008A3
:1001A80010B5054C237833B9044B13B10448AFF3A9
:1001B80000800123237010BD6800002000000000AB
:1001C8003C13000808B5034B1BB103490348AFF3C0
:1001D800008008BD000000006C0000203C130008EF
:1001E80080B485B000AF78600023FB6002E0FB6854
:1001F8000133FB60FA687B689A42F8D300BF00BFFE
:100208001437BD465DF8047B7047000080B582B0A6
:1002180000AF194B7B60194B3B607B681B6843F050
:1002280001027B681A603B681B6843F480623B6884
:100238001A603B681B6843F480523B681A603B684D
:100248001B6843F480423B681A603B681B6843F4B0
:1002580080323B681A60052000F02AF8062000F07A
:1002680027F8072000F024F8082000F021F800BF44
:100278000837BD4680BD00BF30380240000002404C
:1002880080B485B000AF0346FB71084BFB60FB6888
:100298001B68FA79012101FA02F21A43FB681A6015
:1002A80000BF1437BD465DF8047B70471400024058
:1002B80080B485B000AF0346FB71094BFB60FB6857
:1002C8001B68FA79012101FA02F2D2431A40FB684D
:1002D8001A6000BF1437BD465DF8047B704700BF45
:1002E8001400024080B500AF00F028F9074800F07C
:1002F80091F800F095F8FFF789FF4FF47A7000F055
:1003080053F800F0A7F900F007F8FEE700EC012029
:1003180080B400AFFEE7000080B500AF0520FFF70E
:10032800AFFF0548FFF75CFF0520FFF7C1FF024854
:10033800FFF756FFF2E700BFD012130080B500AFF9
:100348000620FFF79DFF0548FFF74AFF0620FFF745
:10035800AFFF0248FFF744FFF2E700BF68890900D2
:1003680080B500AF0820FFF78BFF0548FFF738FF7F
:100378000820FFF79DFF0248FFF732FFF2E700BFB2
:10038800B4C4040080B500AF0720FFF779FF054823
:10039800FFF726FF0720FFF78BFF0248FFF720FF34
:1003A800F2E700BF5A62020080B487B000AF7860FD
:1003B800154B7B61154B3B61154A7B68B2FBF3F328
:1003C800013BFB607B6900221A607B691A68FB6845
:1003D8001A437B691A603B691B6843F002023B6958
:1003E8001A603B691B6843F004023B691A603B6969
:1003F8001B6843F001023B691A6000BF1C37BD4609
:100408005DF8047B704700BF14E000E010E000E0F6
:100418000024F400034683F30888704700BF0000F7
:1004280080B485B000AF3A4B00221A72384B0022D4
:100438001A76374B002283F82820354B002283F8A0
:100448003820334B002283F84820314B314A1A6058
:100458002F4B314A1A612E4B304A1A622C4B304AC4
:100468001A632B4B2F4A1A64294B2F4ADA60284B00
:100478002E4ADA61264B2E4ADA62254B2D4ADA6378
:10048800234B2D4ADA640023BB6037E0204ABB685F
:100498001B0113441B68FB60FB68043BFB60FB68A3
:1004A8004FF080721A60FB68043BFB60184ABB6817
:1004B8001B0113440C331B681A46FB681A60FB685F
:1004C800043BFB60FB686FF002021A6000237B604C
:1004D80008E0FB68043BFB60FB6800221A607B684D
:1004E80001337B607B680C2BF3DDFA680849BB6835
:1004F8001B010B441A60BB680133BB60BB68042B4B
:10050800C4DD00BF00BF1437BD465DF8047B7047EB
:100518009400002000F001200000022000FC0120CF
:1005280000F8012000F40120190300082103000845
:1005380045030008690300088D03000880B483B0F0
:1005480000AF0D4B7B607B681B6843F480327B688F
:100558001A607B681B6843F400327B681A607B680A
:100568001B6843F480227B681A6000BF0C37BD46C5
:100578005DF8047B704700BF24ED00E080B400AF55
:10058800054B1B78054A1B0113441B681846BD46DA
:100598005DF8047B704700BF000000209400002035
:1005A80080B483B000AF7860064B1B78064A1B0105
:1005B80013447A681A6000BF0C37BD465DF8047BA7
:1005C800704700BF000000209400002080B483B072
:1005D80000AFFF237B6000233B6024E01A4B1B78AD
:1005E8000133DAB2184B1A70174B1A78174BA3FB62
:1005F800021399080B469B000B44D31ADAB2124B2C
:100608001A70114B1B78124A1B01134408331B78CC
:100618007B607B68002B03D10B4B1B78002B06D12A
:100628003B6801333B603B68042BD7DD00E000BF2B
:100638007B68002B02D0044B00221A7000BF0C37D5
:10064800BD465DF8047B704700000020CDCCCCCCC3
:100658009400002000B5FFF791FF80F309885DF84A
:1006680004EB4FF0020080F31488704700BFEFF3EB
:10067800098020E9F00F00B5FFF792FFFFF7A6FF0A
:10068800FFF77CFFB0E8F00F80F309885DF804EB12
:10069800704700BF80B400AF044B1B680133034AA6
:1006A800136000BFBD465DF8047B704784000020DE
:1006B80080B483B000AF01237B601BE0124A7B68E3
:1006C8001B01134408331B78002B10D00E4A7B689B
:1006D8001B01134404331A680C4B1B689A4206D159
:1006E800094A7B681B011344083300221A707B688F
:1006F80001337B607B68042BE0DD00BF00BF0C3753
:10070800BD465DF8047B70479400002084000020FB
:1007180080B582B000AF084B7B60FFF7BBFFFFF7E7
:10072800C7FF7B681B6843F080527B681A6000BF74
:100738000837BD4680BD00BF04ED00E080B500AFBE
:10074800014800F09FF9FEE75413000880B500AF98
:10075800014800F097F9FEE76C13000880B500AF78
:10076800014800F08FF9FEE78413000880B483B0D5
:1007780000AF0346FB710F4B1B680E4A43F08073B2
:1007880013600D4B1B680C4A43F00103136000BF54
:100798004FF060431B6803F00103002BF8D04FF0C3
:1007A8006042FB79136000BF0C37BD465DF8047BDF
:1007B800704700BFFCED00E0000E00E080B586B099
:1007C80000AFF860B9607A6000237B610AE0AFF39C
:1007D80000800146BB685A1CBA60CAB21A707B69AD
:1007E80001337B617A697B689A42F0DB7B68184643
:1007F8001837BD4680BD80B586B000AFF860B960D7
:100808007A6000237B6109E0BB685A1CBA601B78D8
:100818001846FFF7ABFF7B6901337B617A697B6818
:100828009A42F1DB7B6818461837BD4680BD80B414
:1008380083B000AF78604FF0FF3318460C37BD46E1
:100848005DF8047B704780B483B000AF786039608E
:100858003B684FF400525A60002318460C37BD46D7
:100868005DF8047B704780B483B000AF78600123E3
:1008780018460C37BD465DF8047B704780B485B0D8
:1008880000AFF860B9607A60002318461437BD4697
:100898005DF8047B7047000080B584B000AF7860D5
:1008A800114B1B68002B02D10F4B104A1A600E4BDC
:1008B8001B68FB600C4B1A687B6813446A469342BA
:1008C80007D900F03FF803460C221A604FF0FF33B7
:1008D80006E0054B1A687B681344034A1360FB68FB
:1008E80018461037BD4680BD88000020F80000205B
:1008F8000D4885460D480E490E4A002302E0D4589B
:10090800C4500433C4188C42F9D30B4A0B4C00234F
:1009180001E013600432A242FBD3AFF3008000F081
:1009280017F8FFF7DFFCFEE70000022000000020B8
:10093800680000200814000868000020F400002067
:10094800FEE70000014B1868704700BF0400002054
:1009580070B50D4D0D4C641BA4100026A64209D19C
:100968000B4D0C4C00F0E6FC641BA4100026A642BC
:1009780005D170BD55F8043B98470136EEE755F8A8
:10098800043B98470136F2E70014000800140008F9
:10099800001400080414000802440346934200D1DE
:1009A800704703F8011BF9E770B50E46054618B104
:1009B80083690BB900F048FAAB69AC6813B92846EB
:1009C80000F042FA2C4B9C4220D16C68636EDB0726
:1009D80005D4A389980502D4A06D00F0D3FAA389A1
:1009E80019071DD52369DBB1013EA36816F8011F5D
:1009F800013BA36039BB002B38DA22460A2128467E
:100A080000F048F8013011D00A2511E01B4B9C4238
:100A180001D1AC68DAE71A4B9C4208BFEC68D5E70D
:100A28002146284600F088F80028DDD04FF0FF3531
:100A3800636EDA0705D4A3899B0502D4A06D00F084
:100A4800A2FA284670BD002B04DAA2699A4206DC95
:100A58000A2904D023685A1C22601970C5E7224667
:100A6800284600F017F80130BFD1DFE723680A25D0
:100A78005A1C22601D70DBE7C0130008E013000851
:100A8800A0130008024B01461868FFF78DBF00BF8E
:100A980004000020F8B50E461446054618B18369CF
:100AA8000BB900F0D1F9214B9C422BD16C68A3699A
:100AB800A360A3891A072FD523696BB3236920681C
:100AC800C01A6369F6B28342374604DC21462846D9
:100AD80000F026F930BBA368013BA36023685A1CC9
:100AE80022601E7063690130834204D0A389DB074A
:100AF80006D50A2E04D12146284600F011F988B9F6
:100B08003846F8BD0A4B9C4201D1AC68CFE7094B87
:100B18009C4208BFEC68CAE72146284600F00CF85A
:100B28000028CBD04FF0FF37EAE700BFC01300081A
:100B3800E0130008A0130008324B70B51D68064684
:100B48000C4625B1AB6913B9284600F07DF92E4B48
:100B58009C420FD16C68A389B4F90C2019072CD4D6
:100B6800DD0611D40923336042F04003A3814FF01E
:100B7800FF303EE0254B9C4201D1AC68EBE7244BAB
:100B88009C4208BFEC68E6E7580712D5616B41B193
:100B980004F14403994202D0304600F059FA002388
:100BA8006363A38923F02403A3810023636023697B
:100BB8002360A38943F00803A38123694BB9A38960
:100BC80003F42073B3F5007F03D02146304600F0CC
:100BD800FFF9A089B4F90C2010F001030AD0002312
:100BE800A36063695B42A361236943B910F0800085
:100BF800BAD170BD810758BF6369A360F4E70020CC
:100C0800F7E700BF04000020C0130008E013000845
:100C1800A01300088A892DE9F041054610070C4603
:100C280058D44B68002B05DC0B6C002B02DC002031
:100C3800BDE8F081E66A002EF9D0002312F4805254
:100C48002F682B6032D0606DA3895A0705D5636879
:100C5800C01A636B0BB1236CC01A00230246E66A04
:100C6800216A2846B047431CA38906D129681D2953
:100C78002CD82A4ACA40D60728D500226260D9044F
:100C88002269226004D5421C01D12B6803B9606532
:100C9800616B2F600029CAD004F14403994202D045
:100CA800284600F0D5F900206063C1E7216A0123D6
:100CB8002846B047411CC7D12B68002BC4D01D2B38
:100CC80001D0162B01D12F60B1E7A38943F040036F
:100CD800A381ADE70F69002FA9D093070E6808BF5D
:100CE8004B690F6018BF0023A6EB07088B60B8F1AB
:100CF800000F9CDD216AA66A43463A462846B0475B
:100D0800002806DCA38943F04003A3814FF0FF309D
:100D18008EE70744A8EB0008E9E700BF0100402080
:100D280038B50B6905460C4613B90025284638BD69
:100D380018B183690BB900F087F8144B9C421BD19A
:100D48006C68B4F90C30002BEFD0626ED00704D475
:100D5800990502D4A06D00F015F928462146FFF741
:100D680059FF636EDA070546E0D4A3899B05DDD4F5
:100D7800A06D00F008F9D9E7054B9C4201D1AC6899
:100D8800DFE7044B9C4208BFEC68DAE7C0130008B1
:100D9800E0130008A0130008002310B50446C0E9BA
:100DA8000033C0E90433836081814366C281836173
:100DB800194608225C30FFF7EFFD054B6362054BCF
:100DC800A362054BE362054B2462236310BD00BF99
:100DD800CD110008EF110008271200084B12000877
:100DE800014900F0AFB800BF290D000870B54A1ED0
:100DF800682555430E4605F1740100F079F904465B
:100E080040B10021C0E900160C30A06005F168026D
:100E1800FFF7C2FD204670BD014800F0B3B800BF1F
:100E2800EC000020014800F0AEB800BFEC00002044
:100E3800014800F0A7B800BFE7000020014800F013
:100E4800A2B800BFE700002010B50446FFF7F0FF86
:100E5800A3691BB1BDE81040FFF7F0BFC4E9123326
:100E68002365134B134A1B68A262A34204BF0123E4
:100E7800A361204600F020F86060204600F01CF8CE
:100E8800A060204600F018F80022E06004216068A5
:100E9800FFF782FFA06801220921FFF77DFFE068C4
:100EA80002221221FFF778FF0123A361D2E700BFD6
:100EB8009C130008E90D0008F8B50746FFF7ACFFDA
:100EC8001E4B1E68B36913B93046FFF7BDFF48369D
:100ED800D6E90134013B03D533680BB33668F7E72D
:100EE800B4F90C50D5B9164BE36004F158006566A7
:100EF80000F047F8FFF796FFC4E90155C4E9045527
:100F08002560A5610822294604F15C00FFF744FD2D
:100F1800C4E90D55C4E912552046F8BD6834D9E72F
:100F280004213846FFF762FF044630600028D5D117
:100F3800FFF778FF0C233B60EEE700BF9C13000827
:100F48000100FFFF2DE9F8430646884600F14804F2
:100F58000027D4E90195B9F1010905D52468002CC9
:100F6800F7D13846BDE8F883AB89012B07D9B5F925
:100F78000E30013303D029463046C0470743683551
:100F8800E9E770477047704770B50E46B1F90E1023
:100F9800002996B014461D4607DA00232B60B38952
:100FA8001A0610D44FF480630EE06A4600F070F918
:100FB8000028F2DB019A02F47042A2F500535A426B
:100FC8005A412A60EEE740230020236016B070BD26
:100FD8008B8973B59D0706460C4607D504F1470370
:100FE800236023610123636102B070BD01AB6A46CF
:100FF800FFF7CAFF00990546304600F079F848B96E
:10100800B4F90C309A05EFD423F0030343F002033C
:10101800A381E3E70D4BB362A389206043F080030B
:10102800A381009B6361019B20615BB1B4F90E1041
:10103800304600F03FF928B1A38923F0030343F0B9
:101048000103A381A0890543A581CDE7E90D000827
:1010580037B5002948D051F8043C0190002BA1F184
:101068000404B8BFE41800F047F9204A019813684F
:10107800154633B96360146003B0BDE8304000F032
:1010880041B9A3420BD921686218934204BF1A6878
:101098005B68636004BF521822602C60ECE71A4654
:1010A8005B680BB1A342FAD911685518A5420BD158
:1010B800246821445418A3421160DDD11C685B6880
:1010C800536021441160D7E702D90C230360D3E7AA
:1010D800256861198B4204BF19685B68636004BFA7
:1010E800491921605460C7E703B030BD8C00002067
:1010F800F8B5CD1C25F0030508350C2D38BF0C2597
:10110800002D064601DBA94203D90C2333600020D9
:10111800F8BD00F0F1F821490A6814469CB9204F3F
:101128003B6823B92146304600F03CF83860294630
:10113800304600F037F8431C23D10C233360304687
:1011480000F0E0F8E3E723685B1B17D40B2B03D907
:1011580023601C44256004E06368A2420CBF0B6056
:101168005360304600F0CEF804F10B00231D20F048
:101178000700C21ACCD01B1AA350C9E722466468DC
:10118800CCE7C41C24F00304A042E3D0211A304663
:1011980000F008F80130DDD1CFE700BF8C00002057
:1011A8009000002038B5064D0023044608462B6001
:1011B800FFF772FB431C02D12B6803B1236038BDD3
:1011C800F000002010B50C46B1F90E1000F0A0F8A0
:1011D8000028ABBF636DA3891B1823F48053ACBFF1
:1011E8006365A38110BD2DE9F0411F468B89DB059E
:1011F80005460C46164605D5B1F90E100223002205
:1012080000F068F8A389B4F90E1023F48053A38181
:1012180032463B462846BDE8F04100F017B810B505
:101228000C46B1F90E1000F055F8431CA38915BF00
:10123800606523F4805343F48053A38118BFA381CE
:1012480010BDB1F90E1000F013B8000038B5074D05
:1012580004460846114600222A601A46FFF7CBFAD0
:10126800431C02D12B6803B1236038BDF000002075
:1012780038B5064D0023044608462B60FFF7D7FA19
:10128800431C02D12B6803B1236038BDF000002055
:1012980038B5074D00230446084611462B60FFF772
:1012A800D2FA431C02D12B6803B1236038BD00BFBA
:1012B800F000002038B5064D0023044608462B6090
:1012C800FFF7D1FA431C02D12B6803B1236038BD64
:1012D800F000002038B5074D0446084611460022A4
:1012E8002A601A46FFF7CAFA431C02D12B6803B1D9
:1012F800236038BDF00000200148FFF743BE00BF5F
:10130800E80000200148FFF73EBE00BFE8000020CB
:1013180038B5074D04460846114600222A601A4689
:10132800FFF74CFA431C02D12B6803B1236038BD88
:10133800F0000020F8B500BFF8BC08BC9E46704716
:0C134800F8B500BFF8BC08BC9E4670471A
:10135400457863657074696F6E203A2048617264E1
:101364006661756C74000000457863657074696F1C
:101374006E203A204D656D4D616E61676500000019
:10138400457863657074696F6E203A2042757346C0
:1013940061756C740000000008000020000000006B
:1013A4000000000000000000000000000000000039
:1013B4000000000000000000000000000000000029
:1013C4000000000000000000000000000000000019
:1013D4000000000000000000000000000000000009
:1013E40000000000000000000000000000000000F9
:0C13F400000000000000000000000000ED
:04140000CD01000812
:04140400A901000832
:10140800010000000800002000000000C0130008D0
:10141800E0130008A013000800000000000000000E
:1014280000000000000000000000000000000000B4
:1014380000000000000000000000000000000000A4
:101448000000000000000000000000000000000094
:101458000000000000000000000000000000000084
:0814680000000000000000007C
:04000005080008F9EE
:00000001FF
